//NOTE: replace @quantnetwork/ with ../../packages/ for all require statements below if you have not built the SDK yourself
const bitcoin = require('bitcoinjs-lib');
const OverledgerSDK = require('@quantnetwork/overledger-bundle').default;
const DltNameOptions = require('@quantnetwork/overledger-types').DltNameOptions;
const TransactionTypeOptions = require('@quantnetwork/overledger-types').TransactionTypeOptions;
const TransactionBitcoinSubTypeOptions = require('@quantnetwork/overledger-dlt-bitcoin').TransactionBitcoinSubTypeOptions;
const TransactionBitcoinScriptTypeOptions = require('@quantnetwork/overledger-dlt-bitcoin').TransactionBitcoinScriptTypeOptions;

//  ---------------------------------------------------------
//  -------------- BEGIN VARIABLES TO UPDATE ----------------
//  ---------------------------------------------------------
const mappId = 'network.quant.testnet';
const bpiKey = 'joNp29bJkQHwEwP3FmNZFgHTqCmciVu5NYD3LkEtk1I';

// Paste in your bitcoin, ethereum and XRP ledger private keys.

// For Bitcoin you can generate an account using `OverledgerSDK.dlts.bitcoin.createAccount` then fund the address at the Bitcoin Testnet Faucet.
const partyABitcoinPrivateKey = 'cPEGEmiMcEATowC5drxviWeMJoxxpUJNS8bxhiyjgd6h4bwA1qgX';
const partyABitcoinAddress = 'tb1q4q4v0argtjzmgsu5ccqtkk9ckcgd7sa2k07e9y';
const partyAs2ndBitcoinPrivateKey = 'cVbxBjsJLLVwy9M8aK1jLd7jVMuhEDn2VsxYfZsSzg4vHCad1u4U';
const partyAs2ndBitcoinAddress = 'tb1qmaerfydd6vdldd8ghprkmlgr2sk3rmx37q2cr9';
const bitcoinLinkedTx = 'b7e9624c4e508d50507a7976f0800f327512e1bcfbc954ecb2d78c92649094e4'; // Add the previous transaction here
const bitcoinLinkedIndex = '0'; // Add the linked transaction index here
const bitcoinInputAmount = 100000; // set equal to the number of satoshis in your first input
const bitcoinPartyBAmount = 10000; // set equal to the number of satoshis to send to party B
const bitcoinChangeAmount = 87800; // set equal to the number of satoshis to send back to yourself 
                                // ( must be equal to 'total input amount' - 'party B amount' - extraFields.feePrice )

// Now provide three other addresses that you will be transfering value too
const partyBBitcoinAddress = 'tb1q0ahuaph3pgnu2wd2u05ez58ug7pap96xdcjx0z';

//  ---------------------------------------------------------
//  -------------- END VARIABLES TO UPDATE ------------------
//  ---------------------------------------------------------

; (async () => {
  try {
    // Connect to overledger and choose which distributed ledgers to use:
    const overledger = new OverledgerSDK(mappId, bpiKey, {
      dlts: [{ dlt: DltNameOptions.BITCOIN }],
      provider: { network: 'testnet' },
    });
    const transactionMessage = 'OVL SDK Test';

    // SET partyA accounts for signing;
    overledger.dlts.bitcoin.setAccount({ privateKey: partyABitcoinPrivateKey, isSegwit: true });

    const signedTransactions = await overledger.sign([
    {
          // The following parameters are from the TransactionRequest object:
      dlt: DltNameOptions.BITCOIN,
      type: TransactionTypeOptions.UTXO,
      subType: {name: TransactionBitcoinSubTypeOptions.VALUE_TRANSFER},
      message: transactionMessage,
      txInputs: [ // Set as many inputs as required in order to fund your outputs
        {
          linkedTx: bitcoinLinkedTx,
          linkedIndex: bitcoinLinkedIndex,
          fromAddress: partyABitcoinAddress,
          rawTransaction: '020000000001017aa56f443d7ba0d4e8b3efc1c2bdf7e1c102850ca35763bef23fb921994355b00100000000feffffff02a086010000000000160014a82ac7f4685c85b44394c600bb58b8b610df43aa236b9d0100000000160014dc5498b964f000e3afc4d64bba7e86527c1778dc024730440220554f1b82bf3b332eb23020f38b6d01f6fd7ba7ccab96ca59e2347eaf5950efb702201f1f4732445464a78ef9ac447e60a30379df25138f32956cedcedfaac5ae14750121029e01da922799cc075b516e8cb5ef8d4be6fcbf6dd9b5e59f0d623577b916a3e1b1111d00',
          scriptPubKey: '0014a82ac7f4685c85b44394c600bb58b8b610df43aa',
          amount: bitcoinInputAmount 
        }
      ],
      txOutputs: [ // Set as many outputs as required
        {  
          toAddress: partyBBitcoinAddress,
          amount: bitcoinPartyBAmount 
        },
        {
          toAddress: partyAs2ndBitcoinAddress, // This is the change address
          amount: bitcoinChangeAmount 
        }
      ],
      extraFields: {
              // The following parameters are from the TransactionBitcoinRequest object:
        feePrice: '2200' // Price for the miner to add this transaction to the block
      },
    }
  ]);

    console.log("Signed transactions: ");
    console.log(JSON.stringify(signedTransactions, null, 2));

    // Send the transactions to Overledger.
    const result = (await overledger.send(signedTransactions)).data;

    // Log the result.
    console.log('OVL result:');
    console.log(JSON.stringify(result, null, 2));
    console.log("");
    counter = 0;
    while (counter < result.dltData.length){
      console.log('Your ' + result.dltData[counter].dlt + ' value transfer transaction hash is: ' + result.dltData[counter].transactionHash);
      console.log("");
      counter = counter + 1;
    }
  } catch (e) {
    console.error('error:', e);
  }
})();
