//NOTE: replace @quantnetwork/ with ../../packages/ for all require statements below if you have not built the SDK yourself
const OverledgerSDK = require('@quantnetwork/overledger-bundle').default;
const DltNameOptions = require('@quantnetwork/overledger-types').DltNameOptions;
const TransactionTypeOptions = require('@quantnetwork/overledger-types').TransactionTypeOptions;
const TransactionBitcoinSubTypeOptions = require('@quantnetwork/overledger-dlt-bitcoin').TransactionBitcoinSubTypeOptions;
const TransactionBitcoinTransferTypeOptions = require('@quantnetwork/overledger-dlt-bitcoin').TransactionBitcoinTransferTypeOptions;

//  ---------------------------------------------------------
//  -------------- BEGIN VARIABLES TO UPDATE ----------------
//  ---------------------------------------------------------
const mappId = 'network.quant.testnet';
const bpiKey = 'joNp29bJkQHwEwP3FmNZFgHTqCmciVu5NYD3LkEtk1I';

// Paste in your bitcoin, ethereum and XRP ledger private keys.

const partyABitcoinAddress = '2MwFJaijdrmy8S35o1s4n37hWV2prXsxFvG';
const bitcoinLinkedTx = 'ed45606201bb92b807d3a152fbe6264d112d2736ea0b0a2481f0fae7403ca279'; // Add the previous transaction here
const bitcoinLinkedIndex = '0'; // Add the linked transaction index here
const bitcoinInputAmount = 10000; // set equal to the number of satoshis in your first input
const bitcoinPartyBAmount = 7800; // set equal to the number of satoshis to send to party B
const bitcoinChangeAmount = 0; // set equal to the number of satoshis to send back to yourself 
                                // ( must be equal to 'total input amount' - 'party B amount' - extraFields.feePrice )

// Now provide three other addresses that you will be transfering value too
const partyBBitcoinAddress = 'mxvHBCNoT8mCP7MFaERVuBy9GMzmHcR9hj';
const partyBBitcoinPrivateKey = 'cQYWyycWa8KXRV2Y2c82NYPjdJuSy7wpFMhauMRVNNPFxDyLaAdn';

//  ---------------------------------------------------------
//  -------------- END VARIABLES TO UPDATE ------------------
//  ---------------------------------------------------------

; (async () => {
  try {
    // Connect to overledger and choose which distributed ledgers to use:
    const overledger = new OverledgerSDK(mappId, bpiKey, {
      dlts: [{ dlt: DltNameOptions.BITCOIN }],
      provider: { network: 'testnet' },
    });
    const transactionMessage = 'OVL SDK Test';

    // SET partyA accounts for signing;
    overledger.dlts.bitcoin.setAccount({ privateKey: partyBBitcoinPrivateKey });

    const signedTransactions = await overledger.sign([
    {
          // The following parameters are from the TransactionRequest object:
      dlt: DltNameOptions.BITCOIN,
      type: TransactionTypeOptions.UTXO,
      subType: {name: TransactionBitcoinSubTypeOptions.VALUE_TRANSFER},
      message: transactionMessage,
      txInputs: [
        { 
          linkedTx: bitcoinLinkedTx,
          linkedIndex: bitcoinLinkedIndex,
          fromAddress: partyABitcoinAddress,
          amount: bitcoinInputAmount,
          scriptPubKey: 'a9142be4567959db4393dff7985524fc420a0e223d4287',
          rawTransaction: '020000000183345279d4b08f30f83e30f19ff90f549464b418fe1842d53bb266fc8016e650010000006a47304402203f8abbc0f65db1e7887d439df1b4687849a0e753a5e0416db58854931f5a4dcc02200cacc740aa0a2f5aa06098d3d4116ec6592d2c8022ce01be8162fab5690f41280121035b71e0ec7329c32acf0a86eaa62e88951818021c9ff893108ef5b3103db32221ffffffff02102700000000000017a9142be4567959db4393dff7985524fc420a0e223d428717272200000000001976a91400406a26567183b9b3e42e5fed00f70a2d11428188ac00000000',
          witnessScript: 'a914c1678ba6b9cb17819bdca55c3d0e2aae4d4a97d9876321037475473e1e509bfd85dd7384d95dcb817b71f353b0e3d73616517747e98a26f167047aad2201b17521035b71e0ec7329c32acf0a86eaa62e88951818021c9ff893108ef5b3103db3222168ac',
          redeemScript: '0020426ddef1361f6cf4721aa0d34be8546c2b285dd27978ecf139b40655afb9d67d',
          preimage: 'quantbitcoinpaymentchannel',
          transferType: TransactionBitcoinTransferTypeOptions.REDEEM_HTLC
        }
      ],
      txOutputs: [ // Set as many outputs as required
        { 
          toAddress: partyBBitcoinAddress,
          amount: bitcoinPartyBAmount 
        },
        {
          toAddress: partyBBitcoinAddress, // This is the change address
          amount: bitcoinChangeAmount 
        }
      ],
      extraFields: {
              // The following parameters are from the TransactionBitcoinRequest object:
        feePrice: '2200' // Price for the miner to add this transaction to the block
      },
    }
  ]);

    console.log("Signed transactions: ");
    console.log(JSON.stringify(signedTransactions, null, 2));

    // Send the transactions to Overledger.
    const result = (await overledger.send(signedTransactions)).data;

    // Log the result.
    console.log('OVL result:');
    console.log(JSON.stringify(result, null, 2));
    console.log("");
    counter = 0;
    while (counter < result.dltData.length){
      console.log('Your ' + result.dltData[counter].dlt + ' value transfer transaction hash is: ' + result.dltData[counter].transactionHash);
      console.log("");
      counter = counter + 1;
    }
  } catch (e) {
    console.error('error:', e);
  }
})();

// https://blockstream.info/testnet/tx/c23a24eb6c21f1f5b0520dd83a4b2e6e9b0bb733650269f838e11382f5d55ac4