//NOTE: replace @quantnetwork/ with ../../packages/ for all require statements below if you have not built the SDK yourself
const OverledgerSDK = require('@quantnetwork/overledger-bundle').default;
const DltNameOptions = require('@quantnetwork/overledger-types').DltNameOptions;
const TransactionTypeOptions = require('@quantnetwork/overledger-types').TransactionTypeOptions;
const TransactionBitcoinSubTypeOptions = require('@quantnetwork/overledger-dlt-bitcoin').TransactionBitcoinSubTypeOptions;
const TransactionBitcoinScriptTypeOptions = require('@quantnetwork/overledger-dlt-bitcoin').TransactionBitcoinScriptTypeOptions;

//  ---------------------------------------------------------
//  -------------- BEGIN VARIABLES TO UPDATE ----------------
//  ---------------------------------------------------------
const mappId = 'network.quant.testnet';
const bpiKey = 'joNp29bJkQHwEwP3FmNZFgHTqCmciVu5NYD3LkEtk1I';

// Paste in your bitcoin, ethereum and XRP ledger private keys.

// For Bitcoin you can generate an account using `OverledgerSDK.dlts.bitcoin.createAccount` then fund the address at the Bitcoin Testnet Faucet.
const partyABitcoinPrivateKey = 'cUk9izv1EPDSB2CJ7sf6RdVa6BDUWUBN8icE2LVW5ixvDApqBReT';
const partyABitcoinAddress = 'mfYHTfMs5ptQpWoefcdt9RWi3WTWGeSB7J';
const bitcoinLinkedTx = 'd664ba4449a59e80bd4ecb05ebaa1d4b6161602b2f184b8e5596fac3dae52d76'; // Add the previous transaction here
const bitcoinLinkedIndex = '0'; // Add the linked transaction index here
const bitcoinInputAmount = 1640807; // set equal to the number of satoshis in your first input
const bitcoinPartyBAmount = 10000; // set equal to the number of satoshis to send to party B
const bitcoinChangeAmount = 1628607; // set equal to the number of satoshis to send back to yourself 
                                // ( must be equal to 'total input amount' - 'party B amount' - extraFields.feePrice )


// mutisig account paricipants
const partyB1BitcoinAddress = 'mfYHTfMs5ptQpWoefcdt9RWi3WTWGeSB7J';
const partyB1BitcoinPrivateKey = 'cUk9izv1EPDSB2CJ7sf6RdVa6BDUWUBN8icE2LVW5ixvDApqBReT';

const partyB2BitcoinAddress = 'mxvHBCNoT8mCP7MFaERVuBy9GMzmHcR9hj';
const partyB2BitcoinPrivateKey = 'cQYWyycWa8KXRV2Y2c82NYPjdJuSy7wpFMhauMRVNNPFxDyLaAdn';

const partyB3BitcoinAddress = 'n3oitdxMxaVeo1iUQpm4EyzxyWDZagyqEu';
const partyB3BitcoinPrivateKey = 'cSiJocehbCKWFGivZdN56jt2AE467EKQGcAuDbvvX9WiHsuGcb32';                                

//  ---------------------------------------------------------
//  -------------- END VARIABLES TO UPDATE ------------------
//  ---------------------------------------------------------

; (async () => {
  try {
    // Connect to overledger and choose which distributed ledgers to use:
    const overledger = new OverledgerSDK(mappId, bpiKey, {
      dlts: [{ dlt: DltNameOptions.BITCOIN }],
      provider: { network: 'testnet' },
    });
    const transactionMessage = 'OVL SDK Test';

    // SET partyA accounts for signing;
    overledger.dlts.bitcoin.setAccount(partyABitcoinPrivateKey);
    overledger.dlts.bitcoin.setMultiSigAccount(2, [partyB1BitcoinPrivateKey, partyB2BitcoinPrivateKey, partyB3BitcoinPrivateKey ], 'P2SH-P2WSH');
    const multisigAccount = overledger.dlts.bitcoin.multisigAccount;

    const signedTransactions = await overledger.sign([
    {
          // The following parameters are from the TransactionRequest object:
      dlt: DltNameOptions.BITCOIN,
      type: TransactionTypeOptions.UTXO,
      subType: {name: TransactionBitcoinSubTypeOptions.VALUE_TRANSFER},
      message: transactionMessage,
            // The following parameters are from the TransactionUtxoRequest object:
      txInputs: [ // Set as many inputs as required in order to fund your outputs
        {
          linkedTx: bitcoinLinkedTx,
          linkedIndex: bitcoinLinkedIndex,
          fromAddress: partyABitcoinAddress,
          rawTransaction: '020000000176b73060732dc8738e199d053ba5ea8605d1a93e694b9a2056dc99f7e9fca169010000006b483045022100a619069eaf26bad03d615b1e7d62c230821168f4f5057ed23234174744d4923102206842885565bf5918b7214da3158cc3c6dcaac3084495d875b8ced08c63d0b6090121035b71e0ec7329c32acf0a86eaa62e88951818021c9ff893108ef5b3103db32221ffffffff0167091900000000001976a91400406a26567183b9b3e42e5fed00f70a2d11428188ac00000000',
          scriptPubKey: '76a91400406a26567183b9b3e42e5fed00f70a2d11428188ac',
          amount: bitcoinInputAmount
        }
      ],
      txOutputs: [ // Set as many outputs as required
        {  
          toAddress: multisigAccount.address,
          amount: bitcoinPartyBAmount 
        },
        {
          toAddress: partyABitcoinAddress, // This is the change address
          amount: bitcoinChangeAmount 
        }
      ],
      extraFields: {
              // The following parameters are from the TransactionBitcoinRequest object:
        feePrice: '2200' // Price for the miner to add this transaction to the block
      },
    }
  ]);

    console.log("Signed transactions: ");
    console.log(JSON.stringify(signedTransactions, null, 2));

    // Send the transactions to Overledger.
    const result = (await overledger.send(signedTransactions)).data;

    // Log the result.
    console.log('OVL result:');
    console.log(JSON.stringify(result, null, 2));
    console.log("");
    counter = 0;
    while (counter < result.dltData.length){
      console.log('Your ' + result.dltData[counter].dlt + ' value transfer transaction hash is: ' + result.dltData[counter].transactionHash);
      console.log("");
      counter = counter + 1;
    }
  } catch (e) {
    console.error('error:', e);
  }
})();