//NOTE: replace @quantnetwork/ with ../../packages/ for all require statements below if you have not built the SDK yourself
const bitcoin = require('bitcoinjs-lib');
const OverledgerSDK = require('@quantnetwork/overledger-bundle').default;
const DltNameOptions = require('@quantnetwork/overledger-types').DltNameOptions;
const TransactionTypeOptions = require('@quantnetwork/overledger-types').TransactionTypeOptions;
const TransactionBitcoinSubTypeOptions = require('@quantnetwork/overledger-dlt-bitcoin').TransactionBitcoinSubTypeOptions;
const TransactionBitcoinScriptTypeOptions = require('@quantnetwork/overledger-dlt-bitcoin').TransactionBitcoinScriptTypeOptions;

//  ---------------------------------------------------------
//  -------------- BEGIN VARIABLES TO UPDATE ----------------
//  ---------------------------------------------------------
const mappId = 'network.quant.testnet';
const bpiKey = 'joNp29bJkQHwEwP3FmNZFgHTqCmciVu5NYD3LkEtk1I';

// Paste in your bitcoin, ethereum and XRP ledger private keys.

// For Bitcoin you can generate an account using `OverledgerSDK.dlts.bitcoin.createAccount` then fund the address at the Bitcoin Testnet Faucet.
const partyABitcoinPrivateKey = 'cUk9izv1EPDSB2CJ7sf6RdVa6BDUWUBN8icE2LVW5ixvDApqBReT';
const partyABitcoinAddress = 'mfYHTfMs5ptQpWoefcdt9RWi3WTWGeSB7J';
const bitcoinLinkedTx = '3ef442b5b7bb9a5d7dd2e1f50cfa3179b7b3f2bf81e38459177500e1ba0a7ba3'; // Add the previous transaction here
const bitcoinLinkedIndex = '1'; // Add the linked transaction index here
const bitcoinInputAmount = 1677407; // set equal to the number of satoshis in your first input
const bitcoinPartyBAmount = 10000; // set equal to the number of satoshis to send to party B
const bitcoinChangeAmount = 1665207; // set equal to the number of satoshis to send back to yourself 
                                // ( must be equal to 'total input amount' - 'party B amount' - extraFields.feePrice )

// Now provide three other addresses that you will be transfering value too
const partyBBitcoinAddress = '2Mtfpk3Wzjq7bEeyvMH51YzKf1mK12hzMzm';

//  ---------------------------------------------------------
//  -------------- END VARIABLES TO UPDATE ------------------
//  ---------------------------------------------------------

; (async () => {
  try {
    // Connect to overledger and choose which distributed ledgers to use:
    const overledger = new OverledgerSDK(mappId, bpiKey, {
      dlts: [{ dlt: DltNameOptions.BITCOIN }],
      provider: { network: 'testnet' },
    });
    const transactionMessage = 'OVL SDK Test';

    // SET partyA accounts for signing;
    overledger.dlts.bitcoin.setAccount(partyABitcoinPrivateKey);

    const signedTransactions = await overledger.sign([
    {
          // The following parameters are from the TransactionRequest object:
      dlt: DltNameOptions.BITCOIN,
      type: TransactionTypeOptions.UTXO,
      subType: {name: TransactionBitcoinSubTypeOptions.VALUE_TRANSFER},
      message: transactionMessage,
            // The following parameters are from the TransactionUtxoRequest object:
      txInputs: [ // Set as many inputs as required in order to fund your outputs
        {
          linkedTx: bitcoinLinkedTx,
          linkedIndex: bitcoinLinkedIndex,
          fromAddress: partyABitcoinAddress,
          rawTransaction: '0200000000010187cdf342e2e9a90fa1342a7cfcfc553f2db1e0191c14245fb76005bad124adc60000000000feffffff020952cb110000000017a91444fdd98d1cd03a11918139eec0cac870716c0eba875f981900000000001976a91400406a26567183b9b3e42e5fed00f70a2d11428188ac024730440220773b9e5197669b26c3492a2c305f86762a7262f42e16c034e0a1c2e4d5de18e3022044d0fe4b00f03b174cdd2412d3558657b698a9c3ce2ce862e3a0d79cd5975706012102e22872d5d3a0756f757adbc0cf99622f84837e013e0eb592141f1b0b8eaa152e7b0b1d00',
          scriptPubKey: '76a91400406a26567183b9b3e42e5fed00f70a2d11428188ac',
          amount: bitcoinInputAmount
        }
      ],
      txOutputs: [ // Set as many outputs as required
        {  
          scriptType: TransactionBitcoinScriptTypeOptions.P2SHP2MS,
          toAddress: partyBBitcoinAddress,
          amount: bitcoinPartyBAmount 
        },
        {
          scriptType: TransactionBitcoinScriptTypeOptions.P2PKH,
          toAddress: partyABitcoinAddress, // This is the change address
          amount: bitcoinChangeAmount 
        }
      ],
      extraFields: {
              // The following parameters are from the TransactionBitcoinRequest object:
        feePrice: '2200' // Price for the miner to add this transaction to the block
      },
    }
  ]);

    console.log("Signed transactions: ");
    console.log(JSON.stringify(signedTransactions, null, 2));

    // Send the transactions to Overledger.
    const result = (await overledger.send(signedTransactions)).data;

    // Log the result.
    console.log('OVL result:');
    console.log(JSON.stringify(result, null, 2));
    console.log("");
    counter = 0;
    while (counter < result.dltData.length){
      console.log('Your ' + result.dltData[counter].dlt + ' value transfer transaction hash is: ' + result.dltData[counter].transactionHash);
      console.log("");
      counter = counter + 1;
    }
  } catch (e) {
    console.error('error:', e);
  }
})();


// f305d9acee40131d19c22e4978c3872e2fcc3eff6089593746c6e95a233489a8

// transaction id 
// d147ea01b9e1c803aeb0adc8c170c63cd1f60e7f3e4fb5b45a9b035f77a8b1bb