//NOTE: replace @quantnetwork/ with ../../packages/ for all require statements below if you have not built the SDK yourself
const bitcoin = require('bitcoinjs-lib');
const OverledgerSDK = require('@quantnetwork/overledger-bundle').default;
const DltNameOptions = require('@quantnetwork/overledger-types').DltNameOptions;
const TransactionTypeOptions = require('@quantnetwork/overledger-types').TransactionTypeOptions;
const TransactionBitcoinSubTypeOptions = require('@quantnetwork/overledger-dlt-bitcoin').TransactionBitcoinSubTypeOptions;
const TransactionBitcoinScriptTypeOptions = require('@quantnetwork/overledger-dlt-bitcoin').TransactionBitcoinScriptTypeOptions;

//  ---------------------------------------------------------
//  -------------- BEGIN VARIABLES TO UPDATE ----------------
//  ---------------------------------------------------------
const mappId = 'network.quant.testnet';
const bpiKey = 'joNp29bJkQHwEwP3FmNZFgHTqCmciVu5NYD3LkEtk1I';

// Paste in your bitcoin, ethereum and XRP ledger private keys.

// For Bitcoin you can generate an account using `OverledgerSDK.dlts.bitcoin.createAccount` then fund the address at the Bitcoin Testnet Faucet.
const partyABitcoinPrivateKey = 'cPEGEmiMcEATowC5drxviWeMJoxxpUJNS8bxhiyjgd6h4bwA1qgX';
const partyABitcoinAddress = 'tb1q4q4v0argtjzmgsu5ccqtkk9ckcgd7sa2k07e9y';
const partyAs2ndBitcoinPrivateKey = 'cVbxBjsJLLVwy9M8aK1jLd7jVMuhEDn2VsxYfZsSzg4vHCad1u4U';
const partyAs2ndBitcoinAddress = 'tb1qmaerfydd6vdldd8ghprkmlgr2sk3rmx37q2cr9';
const bitcoinLinkedTx = 'af03c39c3d2ec147f649804abf22e597499e32a2ec3803b53c669e042c0e3c6e'; // Add the previous transaction here
const bitcoinLinkedIndex = '1'; // Add the linked transaction index here
const bitcoinInputAmount = 87800; // set equal to the number of satoshis in your first input
const bitcoinPartyBAmount = 10000; // set equal to the number of satoshis to send to party B
const bitcoinChangeAmount = 75600; // set equal to the number of satoshis to send back to yourself 
                                // ( must be equal to 'total input amount' - 'party B amount' - extraFields.feePrice )

// Now provide three other addresses that you will be transfering value too
const partyBBitcoinAddress = 'tb1q0ahuaph3pgnu2wd2u05ez58ug7pap96xdcjx0z';

//  ---------------------------------------------------------
//  -------------- END VARIABLES TO UPDATE ------------------
//  ---------------------------------------------------------

; (async () => {
  try {
    // Connect to overledger and choose which distributed ledgers to use:
    const overledger = new OverledgerSDK(mappId, bpiKey, {
      dlts: [{ dlt: DltNameOptions.BITCOIN }],
      provider: { network: 'testnet' },
    });
    const transactionMessage = 'OVL SDK Test';

    // SET partyA accounts for signing;
    overledger.dlts.bitcoin.setAccount({ privateKey: partyAs2ndBitcoinPrivateKey, isSegwit: true });

    const signedTransactions = await overledger.sign([
    {
          // The following parameters are from the TransactionRequest object:
      dlt: DltNameOptions.BITCOIN,
      type: TransactionTypeOptions.UTXO,
      subType: {name: TransactionBitcoinSubTypeOptions.VALUE_TRANSFER},
      message: transactionMessage,
      txInputs: [ // Set as many inputs as required in order to fund your outputs
        {
          linkedTx: bitcoinLinkedTx,
          linkedIndex: bitcoinLinkedIndex,
          fromAddress: partyAs2ndBitcoinAddress,
          rawTransaction: '02000000000101e4949064928cd7b2ec54c9fbbce11275320f80f076797a50508d504e4c62e9b70000000000ffffffff0210270000000000001600147f6fce86f10a27c539aae3e99150fc4783d09746f856010000000000160014df723491add31bf6b4e8b8476dfd03542d11ecd102483045022100f6061f2cbf8e9dca9b7c33b1af6858f2b470ce273a7759f84250a81408aa70a602204818af9139cabcb4ceb8b2e3cf4ee7117f10fb0d4eb8b9f540e349c6c0f31aff0121022a5d4247d17c2e9bbf24f1fb72fc072b7b8220c8b82e2940b702d41e6b48eec400000000',
          scriptPubKey: '0014df723491add31bf6b4e8b8476dfd03542d11ecd1',
          amount: bitcoinInputAmount 
        }
      ],
      txOutputs: [ // Set as many outputs as required
        {  
          toAddress: partyBBitcoinAddress,
          amount: bitcoinPartyBAmount 
        },
        {
          toAddress: partyABitcoinAddress, // This is the change address
          amount: bitcoinChangeAmount 
        }
      ],
      extraFields: {
              // The following parameters are from the TransactionBitcoinRequest object:
        feePrice: '2200' // Price for the miner to add this transaction to the block
      },
    }
  ]);

    console.log("Signed transactions: ");
    console.log(JSON.stringify(signedTransactions, null, 2));

    // Send the transactions to Overledger.
    const result = (await overledger.send(signedTransactions)).data;

    // Log the result.
    console.log('OVL result:');
    console.log(JSON.stringify(result, null, 2));
    console.log("");
    counter = 0;
    while (counter < result.dltData.length){
      console.log('Your ' + result.dltData[counter].dlt + ' value transfer transaction hash is: ' + result.dltData[counter].transactionHash);
      console.log("");
      counter = counter + 1;
    }
  } catch (e) {
    console.error('error:', e);
  }
})();
